{"abi":[{"type":"constructor","inputs":[{"name":"name","type":"string","internalType":"string"},{"name":"symbol","type":"string","internalType":"string"},{"name":"decimals_","type":"uint8","internalType":"uint8"},{"name":"initialSupply","type":"uint256","internalType":"uint256"}],"stateMutability":"nonpayable"},{"type":"function","name":"DOMAIN_SEPARATOR","inputs":[],"outputs":[{"name":"","type":"bytes32","internalType":"bytes32"}],"stateMutability":"view"},{"type":"function","name":"TRANSFER_WITH_AUTHORIZATION_TYPEHASH","inputs":[],"outputs":[{"name":"","type":"bytes32","internalType":"bytes32"}],"stateMutability":"view"},{"type":"function","name":"allowance","inputs":[{"name":"owner","type":"address","internalType":"address"},{"name":"spender","type":"address","internalType":"address"}],"outputs":[{"name":"","type":"uint256","internalType":"uint256"}],"stateMutability":"view"},{"type":"function","name":"approve","inputs":[{"name":"spender","type":"address","internalType":"address"},{"name":"value","type":"uint256","internalType":"uint256"}],"outputs":[{"name":"","type":"bool","internalType":"bool"}],"stateMutability":"nonpayable"},{"type":"function","name":"authorizationState","inputs":[{"name":"authorizer","type":"address","internalType":"address"},{"name":"nonce","type":"bytes32","internalType":"bytes32"}],"outputs":[{"name":"","type":"bool","internalType":"bool"}],"stateMutability":"view"},{"type":"function","name":"balanceOf","inputs":[{"name":"account","type":"address","internalType":"address"}],"outputs":[{"name":"","type":"uint256","internalType":"uint256"}],"stateMutability":"view"},{"type":"function","name":"decimals","inputs":[],"outputs":[{"name":"","type":"uint8","internalType":"uint8"}],"stateMutability":"view"},{"type":"function","name":"mint","inputs":[{"name":"to","type":"address","internalType":"address"},{"name":"amount","type":"uint256","internalType":"uint256"}],"outputs":[],"stateMutability":"nonpayable"},{"type":"function","name":"name","inputs":[],"outputs":[{"name":"","type":"string","internalType":"string"}],"stateMutability":"view"},{"type":"function","name":"owner","inputs":[],"outputs":[{"name":"","type":"address","internalType":"address"}],"stateMutability":"view"},{"type":"function","name":"renounceOwnership","inputs":[],"outputs":[],"stateMutability":"nonpayable"},{"type":"function","name":"symbol","inputs":[],"outputs":[{"name":"","type":"string","internalType":"string"}],"stateMutability":"view"},{"type":"function","name":"totalSupply","inputs":[],"outputs":[{"name":"","type":"uint256","internalType":"uint256"}],"stateMutability":"view"},{"type":"function","name":"transfer","inputs":[{"name":"to","type":"address","internalType":"address"},{"name":"value","type":"uint256","internalType":"uint256"}],"outputs":[{"name":"","type":"bool","internalType":"bool"}],"stateMutability":"nonpayable"},{"type":"function","name":"transferFrom","inputs":[{"name":"from","type":"address","internalType":"address"},{"name":"to","type":"address","internalType":"address"},{"name":"value","type":"uint256","internalType":"uint256"}],"outputs":[{"name":"","type":"bool","internalType":"bool"}],"stateMutability":"nonpayable"},{"type":"function","name":"transferOwnership","inputs":[{"name":"newOwner","type":"address","internalType":"address"}],"outputs":[],"stateMutability":"nonpayable"},{"type":"function","name":"transferWithAuthorization","inputs":[{"name":"from","type":"address","internalType":"address"},{"name":"to","type":"address","internalType":"address"},{"name":"value","type":"uint256","internalType":"uint256"},{"name":"validAfter","type":"uint256","internalType":"uint256"},{"name":"validBefore","type":"uint256","internalType":"uint256"},{"name":"nonce","type":"bytes32","internalType":"bytes32"},{"name":"signature","type":"bytes","internalType":"bytes"}],"outputs":[],"stateMutability":"nonpayable"},{"type":"function","name":"transferWithAuthorization","inputs":[{"name":"from","type":"address","internalType":"address"},{"name":"to","type":"address","internalType":"address"},{"name":"value","type":"uint256","internalType":"uint256"},{"name":"validAfter","type":"uint256","internalType":"uint256"},{"name":"validBefore","type":"uint256","internalType":"uint256"},{"name":"nonce","type":"bytes32","internalType":"bytes32"},{"name":"v","type":"uint8","internalType":"uint8"},{"name":"r","type":"bytes32","internalType":"bytes32"},{"name":"s","type":"bytes32","internalType":"bytes32"}],"outputs":[],"stateMutability":"nonpayable"},{"type":"event","name":"Approval","inputs":[{"name":"owner","type":"address","indexed":true,"internalType":"address"},{"name":"spender","type":"address","indexed":true,"internalType":"address"},{"name":"value","type":"uint256","indexed":false,"internalType":"uint256"}],"anonymous":false},{"type":"event","name":"AuthorizationCanceled","inputs":[{"name":"authorizer","type":"address","indexed":true,"internalType":"address"},{"name":"nonce","type":"bytes32","indexed":true,"internalType":"bytes32"}],"anonymous":false},{"type":"event","name":"AuthorizationUsed","inputs":[{"name":"authorizer","type":"address","indexed":true,"internalType":"address"},{"name":"nonce","type":"bytes32","indexed":true,"internalType":"bytes32"}],"anonymous":false},{"type":"event","name":"OwnershipTransferred","inputs":[{"name":"previousOwner","type":"address","indexed":true,"internalType":"address"},{"name":"newOwner","type":"address","indexed":true,"internalType":"address"}],"anonymous":false},{"type":"event","name":"Transfer","inputs":[{"name":"from","type":"address","indexed":true,"internalType":"address"},{"name":"to","type":"address","indexed":true,"internalType":"address"},{"name":"value","type":"uint256","indexed":false,"internalType":"uint256"}],"anonymous":false},{"type":"error","name":"ERC20InsufficientAllowance","inputs":[{"name":"spender","type":"address","internalType":"address"},{"name":"allowance","type":"uint256","internalType":"uint256"},{"name":"needed","type":"uint256","internalType":"uint256"}]},{"type":"error","name":"ERC20InsufficientBalance","inputs":[{"name":"sender","type":"address","internalType":"address"},{"name":"balance","type":"uint256","internalType":"uint256"},{"name":"needed","type":"uint256","internalType":"uint256"}]},{"type":"error","name":"ERC20InvalidApprover","inputs":[{"name":"approver","type":"address","internalType":"address"}]},{"type":"error","name":"ERC20InvalidReceiver","inputs":[{"name":"receiver","type":"address","internalType":"address"}]},{"type":"error","name":"ERC20InvalidSender","inputs":[{"name":"sender","type":"address","internalType":"address"}]},{"type":"error","name":"ERC20InvalidSpender","inputs":[{"name":"spender","type":"address","internalType":"address"}]},{"type":"error","name":"OwnableInvalidOwner","inputs":[{"name":"owner","type":"address","internalType":"address"}]},{"type":"error","name":"OwnableUnauthorizedAccount","inputs":[{"name":"account","type":"address","internalType":"address"}]}],"bytecode":{"object":"0x60c060405234801562000010575f80fd5b5060405162002b3138038062002b31833981810160405281019062000036919062000712565b33848481600390816200004a9190620009ed565b5080600490816200005c9190620009ed565b5050505f73ffffffffffffffffffffffffffffffffffffffff168173ffffffffffffffffffffffffffffffffffffffff1603620000d2575f6040517f1e4fbdf7000000000000000000000000000000000000000000000000000000008152600401620000c9919062000b14565b60405180910390fd5b620000e381620001a960201b60201c565b508160ff1660a08160ff16815250506200010433826200026c60201b60201c565b7f8b73c3c69bb8fe3d512ecc4cf759cc79239f7b179b0ffacaa9a75d522b39400f84805190602001206040518060400160405280600181526020017f31000000000000000000000000000000000000000000000000000000000000008152508051906020012046306040516020016200018295949392919062000b5a565b60405160208183030381529060405280519060200120608081815250505050505062000c72565b5f60055f9054906101000a900473ffffffffffffffffffffffffffffffffffffffff1690508160055f6101000a81548173ffffffffffffffffffffffffffffffffffffffff021916908373ffffffffffffffffffffffffffffffffffffffff1602179055508173ffffffffffffffffffffffffffffffffffffffff168173ffffffffffffffffffffffffffffffffffffffff167f8be0079c531659141344cd1fd0a4f28419497f9722a3daafe3b4186f6b6457e060405160405180910390a35050565b5f73ffffffffffffffffffffffffffffffffffffffff168273ffffffffffffffffffffffffffffffffffffffff1603620002df575f6040517fec442f05000000000000000000000000000000000000000000000000000000008152600401620002d6919062000b14565b60405180910390fd5b620002f25f8383620002f660201b60201c565b5050565b5f73ffffffffffffffffffffffffffffffffffffffff168373ffffffffffffffffffffffffffffffffffffffff16036200034a578060025f8282546200033d919062000be2565b925050819055506200041b565b5f805f8573ffffffffffffffffffffffffffffffffffffffff1673ffffffffffffffffffffffffffffffffffffffff1681526020019081526020015f2054905081811015620003d6578381836040517fe450d38c000000000000000000000000000000000000000000000000000000008152600401620003cd9392919062000c1c565b60405180910390fd5b8181035f808673ffffffffffffffffffffffffffffffffffffffff1673ffffffffffffffffffffffffffffffffffffffff1681526020019081526020015f2081905550505b5f73ffffffffffffffffffffffffffffffffffffffff168273ffffffffffffffffffffffffffffffffffffffff160362000464578060025f8282540392505081905550620004ae565b805f808473ffffffffffffffffffffffffffffffffffffffff1673ffffffffffffffffffffffffffffffffffffffff1681526020019081526020015f205f82825401925050819055505b8173ffffffffffffffffffffffffffffffffffffffff168373ffffffffffffffffffffffffffffffffffffffff167fddf252ad1be2c89b69c2b068fc378daa952ba7f163c4a11628f55a4df523b3ef836040516200050d919062000c57565b60405180910390a3505050565b5f604051905090565b5f80fd5b5f80fd5b5f80fd5b5f80fd5b5f601f19601f8301169050919050565b7f4e487b71000000000000000000000000000000000000000000000000000000005f52604160045260245ffd5b6200057b8262000533565b810181811067ffffffffffffffff821117156200059d576200059c62000543565b5b80604052505050565b5f620005b16200051a565b9050620005bf828262000570565b919050565b5f67ffffffffffffffff821115620005e157620005e062000543565b5b620005ec8262000533565b9050602081019050919050565b5f5b8381101562000618578082015181840152602081019050620005fb565b5f8484015250505050565b5f620006396200063384620005c4565b620005a6565b9050828152602081018484840111156200065857620006576200052f565b5b62000665848285620005f9565b509392505050565b5f82601f8301126200068457620006836200052b565b5b81516200069684826020860162000623565b91505092915050565b5f60ff82169050919050565b620006b6816200069f565b8114620006c1575f80fd5b50565b5f81519050620006d481620006ab565b92915050565b5f819050919050565b620006ee81620006da565b8114620006f9575f80fd5b50565b5f815190506200070c81620006e3565b92915050565b5f805f80608085870312156200072d576200072c62000523565b5b5f85015167ffffffffffffffff8111156200074d576200074c62000527565b5b6200075b878288016200066d565b945050602085015167ffffffffffffffff8111156200077f576200077e62000527565b5b6200078d878288016200066d565b9350506040620007a087828801620006c4565b9250506060620007b387828801620006fc565b91505092959194509250565b5f81519050919050565b7f4e487b71000000000000000000000000000000000000000000000000000000005f52602260045260245ffd5b5f60028204905060018216806200080e57607f821691505b602082108103620008245762000823620007c9565b5b50919050565b5f819050815f5260205f209050919050565b5f6020601f8301049050919050565b5f82821b905092915050565b5f60088302620008887fffffffffffffffffffffffffffffffffffffffffffffffffffffffffffffffff826200084b565b6200089486836200084b565b95508019841693508086168417925050509392505050565b5f819050919050565b5f620008d5620008cf620008c984620006da565b620008ac565b620006da565b9050919050565b5f819050919050565b620008f083620008b5565b62000908620008ff82620008dc565b84845462000857565b825550505050565b5f90565b6200091e62000910565b6200092b818484620008e5565b505050565b5b818110156200095257620009465f8262000914565b60018101905062000931565b5050565b601f821115620009a1576200096b816200082a565b62000976846200083c565b8101602085101562000986578190505b6200099e62000995856200083c565b83018262000930565b50505b505050565b5f82821c905092915050565b5f620009c35f1984600802620009a6565b1980831691505092915050565b5f620009dd8383620009b2565b9150826002028217905092915050565b620009f882620007bf565b67ffffffffffffffff81111562000a145762000a1362000543565b5b62000a208254620007f6565b62000a2d82828562000956565b5f60209050601f83116001811462000a63575f841562000a4e578287015190505b62000a5a8582620009d0565b86555062000ac9565b601f19841662000a73866200082a565b5f5b8281101562000a9c5784890151825560018201915060208501945060208101905062000a75565b8683101562000abc578489015162000ab8601f891682620009b2565b8355505b6001600288020188555050505b505050505050565b5f73ffffffffffffffffffffffffffffffffffffffff82169050919050565b5f62000afc8262000ad1565b9050919050565b62000b0e8162000af0565b82525050565b5f60208201905062000b295f83018462000b03565b92915050565b5f819050919050565b62000b438162000b2f565b82525050565b62000b5481620006da565b82525050565b5f60a08201905062000b6f5f83018862000b38565b62000b7e602083018762000b38565b62000b8d604083018662000b38565b62000b9c606083018562000b49565b62000bab608083018462000b03565b9695505050505050565b7f4e487b71000000000000000000000000000000000000000000000000000000005f52601160045260245ffd5b5f62000bee82620006da565b915062000bfb83620006da565b925082820190508082111562000c165762000c1562000bb5565b5b92915050565b5f60608201905062000c315f83018662000b03565b62000c40602083018562000b49565b62000c4f604083018462000b49565b949350505050565b5f60208201905062000c6c5f83018462000b49565b92915050565b60805160a051611e9662000c9b5f395f61047001525f818161049701526109380152611e965ff3fe608060405234801561000f575f80fd5b5060043610610114575f3560e01c80638da5cb5b116100a0578063cf0929951161006f578063cf092995146102d0578063dd62ed3e146102ec578063e3ee160e1461031c578063e94a010214610338578063f2fde38b1461036857610114565b80638da5cb5b1461024657806395d89b4114610264578063a0cc6a6814610282578063a9059cbb146102a057610114565b8063313ce567116100e7578063313ce567146101b45780633644e515146101d257806340c10f19146101f057806370a082311461020c578063715018a61461023c57610114565b806306fdde0314610118578063095ea7b31461013657806318160ddd1461016657806323b872dd14610184575b5f80fd5b610120610384565b60405161012d919061142d565b60405180910390f35b610150600480360381019061014b91906114eb565b610414565b60405161015d9190611543565b60405180910390f35b61016e610436565b60405161017b919061156b565b60405180910390f35b61019e60048036038101906101999190611584565b61043f565b6040516101ab9190611543565b60405180910390f35b6101bc61046d565b6040516101c991906115ef565b60405180910390f35b6101da610494565b6040516101e79190611620565b60405180910390f35b61020a600480360381019061020591906114eb565b6104bb565b005b61022660048036038101906102219190611639565b6104d1565b604051610233919061156b565b60405180910390f35b610244610516565b005b61024e610529565b60405161025b9190611673565b60405180910390f35b61026c610551565b604051610279919061142d565b60405180910390f35b61028a6105e1565b6040516102979190611620565b60405180910390f35b6102ba60048036038101906102b591906114eb565b610605565b6040516102c79190611543565b60405180910390f35b6102ea60048036038101906102e591906117e2565b610627565b005b6103066004803603810190610301919061189b565b610707565b604051610313919061156b565b60405180910390f35b61033660048036038101906103319190611903565b610789565b005b610352600480360381019061034d91906119c7565b610b70565b60405161035f9190611543565b60405180910390f35b610382600480360381019061037d9190611639565b610bd2565b005b60606003805461039390611a32565b80601f01602080910402602001604051908101604052809291908181526020018280546103bf90611a32565b801561040a5780601f106103e15761010080835404028352916020019161040a565b820191905f5260205f20905b8154815290600101906020018083116103ed57829003601f168201915b5050505050905090565b5f8061041e610c56565b905061042b818585610c5d565b600191505092915050565b5f600254905090565b5f80610449610c56565b9050610456858285610c6f565b610461858585610d02565b60019150509392505050565b5f7f0000000000000000000000000000000000000000000000000000000000000000905090565b5f7f0000000000000000000000000000000000000000000000000000000000000000905090565b6104c3610df2565b6104cd8282610e79565b5050565b5f805f8373ffffffffffffffffffffffffffffffffffffffff1673ffffffffffffffffffffffffffffffffffffffff1681526020019081526020015f20549050919050565b61051e610df2565b6105275f610ef8565b565b5f60055f9054906101000a900473ffffffffffffffffffffffffffffffffffffffff16905090565b60606004805461056090611a32565b80601f016020809104026020016040519081016040528092919081815260200182805461058c90611a32565b80156105d75780601f106105ae576101008083540402835291602001916105d7565b820191905f5260205f20905b8154815290600101906020018083116105ba57829003601f168201915b5050505050905090565b7f7c7c6cdb67a18743f49ec6fa9b35f50d52ed05cbed4cc592e13b44501c1a226781565b5f8061060f610c56565b905061061c818585610d02565b600191505092915050565b604181511461066b576040517f08c379a000000000000000000000000000000000000000000000000000000000815260040161066290611ad2565b60405180910390fd5b5f805f602084015192506040840151915060608401515f1a90503073ffffffffffffffffffffffffffffffffffffffff1663e3ee160e8b8b8b8b8b8b888b8b6040518a63ffffffff1660e01b81526004016106ce99989796959493929190611af0565b5f604051808303815f87803b1580156106e5575f80fd5b505af11580156106f7573d5f803e3d5ffd5b5050505050505050505050505050565b5f60015f8473ffffffffffffffffffffffffffffffffffffffff1673ffffffffffffffffffffffffffffffffffffffff1681526020019081526020015f205f8373ffffffffffffffffffffffffffffffffffffffff1673ffffffffffffffffffffffffffffffffffffffff1681526020019081526020015f2054905092915050565b8542116107cb576040517f08c379a00000000000000000000000000000000000000000000000000000000081526004016107c290611beb565b60405180910390fd5b84421061080d576040517f08c379a000000000000000000000000000000000000000000000000000000000815260040161080490611c53565b60405180910390fd5b60065f8a73ffffffffffffffffffffffffffffffffffffffff1673ffffffffffffffffffffffffffffffffffffffff1681526020019081526020015f205f8581526020019081526020015f205f9054906101000a900460ff16156040518060400160405280601e81526020017f454950333030393a20617574686f72697a6174696f6e20697320757365640000815250906108de576040517f08c379a00000000000000000000000000000000000000000000000000000000081526004016108d5919061142d565b60405180910390fd5b505f7f7c7c6cdb67a18743f49ec6fa9b35f50d52ed05cbed4cc592e13b44501c1a22678a8a8a8a8a8a60405160200161091d9796959493929190611c71565b6040516020818303038152906040528051906020012090505f7f000000000000000000000000000000000000000000000000000000000000000082604051602001610969929190611d52565b6040516020818303038152906040528051906020012090505f6001828787876040515f81526020016040526040516109a49493929190611d88565b6020604051602081039080840390855afa1580156109c4573d5f803e3d5ffd5b5050506020604051035190505f73ffffffffffffffffffffffffffffffffffffffff168173ffffffffffffffffffffffffffffffffffffffff1614158015610a3757508b73ffffffffffffffffffffffffffffffffffffffff168173ffffffffffffffffffffffffffffffffffffffff16145b6040518060400160405280601a81526020017f454950333030393a20696e76616c6964207369676e617475726500000000000081525090610aae576040517f08c379a0000000000000000000000000000000000000000000000000000000008152600401610aa5919061142d565b60405180910390fd5b50600160065f8e73ffffffffffffffffffffffffffffffffffffffff1673ffffffffffffffffffffffffffffffffffffffff1681526020019081526020015f205f8981526020019081526020015f205f6101000a81548160ff021916908315150217905550868c73ffffffffffffffffffffffffffffffffffffffff167f98de503528ee59b575ef0c0a2576a82497bfc029a5685b209e9ec333479b10a560405160405180910390a3610b628c8c8c610d02565b505050505050505050505050565b5f60065f8473ffffffffffffffffffffffffffffffffffffffff1673ffffffffffffffffffffffffffffffffffffffff1681526020019081526020015f205f8381526020019081526020015f205f9054906101000a900460ff16905092915050565b610bda610df2565b5f73ffffffffffffffffffffffffffffffffffffffff168173ffffffffffffffffffffffffffffffffffffffff1603610c4a575f6040517f1e4fbdf7000000000000000000000000000000000000000000000000000000008152600401610c419190611673565b60405180910390fd5b610c5381610ef8565b50565b5f33905090565b610c6a8383836001610fbb565b505050565b5f610c7a8484610707565b90507fffffffffffffffffffffffffffffffffffffffffffffffffffffffffffffffff811015610cfc5781811015610ced578281836040517ffb8f41b2000000000000000000000000000000000000000000000000000000008152600401610ce493929190611dcb565b60405180910390fd5b610cfb84848484035f610fbb565b5b50505050565b5f73ffffffffffffffffffffffffffffffffffffffff168373ffffffffffffffffffffffffffffffffffffffff1603610d72575f6040517f96c6fd1e000000000000000000000000000000000000000000000000000000008152600401610d699190611673565b60405180910390fd5b5f73ffffffffffffffffffffffffffffffffffffffff168273ffffffffffffffffffffffffffffffffffffffff1603610de2575f6040517fec442f05000000000000000000000000000000000000000000000000000000008152600401610dd99190611673565b60405180910390fd5b610ded83838361118a565b505050565b610dfa610c56565b73ffffffffffffffffffffffffffffffffffffffff16610e18610529565b73ffffffffffffffffffffffffffffffffffffffff1614610e7757610e3b610c56565b6040517f118cdaa7000000000000000000000000000000000000000000000000000000008152600401610e6e9190611673565b60405180910390fd5b565b5f73ffffffffffffffffffffffffffffffffffffffff168273ffffffffffffffffffffffffffffffffffffffff1603610ee9575f6040517fec442f05000000000000000000000000000000000000000000000000000000008152600401610ee09190611673565b60405180910390fd5b610ef45f838361118a565b5050565b5f60055f9054906101000a900473ffffffffffffffffffffffffffffffffffffffff1690508160055f6101000a81548173ffffffffffffffffffffffffffffffffffffffff021916908373ffffffffffffffffffffffffffffffffffffffff1602179055508173ffffffffffffffffffffffffffffffffffffffff168173ffffffffffffffffffffffffffffffffffffffff167f8be0079c531659141344cd1fd0a4f28419497f9722a3daafe3b4186f6b6457e060405160405180910390a35050565b5f73ffffffffffffffffffffffffffffffffffffffff168473ffffffffffffffffffffffffffffffffffffffff160361102b575f6040517fe602df050000000000000000000000000000000000000000000000000000000081526004016110229190611673565b60405180910390fd5b5f73ffffffffffffffffffffffffffffffffffffffff168373ffffffffffffffffffffffffffffffffffffffff160361109b575f6040517f94280d620000000000000000000000000000000000000000000000000000000081526004016110929190611673565b60405180910390fd5b8160015f8673ffffffffffffffffffffffffffffffffffffffff1673ffffffffffffffffffffffffffffffffffffffff1681526020019081526020015f205f8573ffffffffffffffffffffffffffffffffffffffff1673ffffffffffffffffffffffffffffffffffffffff1681526020019081526020015f20819055508015611184578273ffffffffffffffffffffffffffffffffffffffff168473ffffffffffffffffffffffffffffffffffffffff167f8c5be1e5ebec7d5bd14f71427d1e84f3dd0314c0f7b2291e5b200ac8c7c3b9258460405161117b919061156b565b60405180910390a35b50505050565b5f73ffffffffffffffffffffffffffffffffffffffff168373ffffffffffffffffffffffffffffffffffffffff16036111da578060025f8282546111ce9190611e2d565b925050819055506112a8565b5f805f8573ffffffffffffffffffffffffffffffffffffffff1673ffffffffffffffffffffffffffffffffffffffff1681526020019081526020015f2054905081811015611263578381836040517fe450d38c00000000000000000000000000000000000000000000000000000000815260040161125a93929190611dcb565b60405180910390fd5b8181035f808673ffffffffffffffffffffffffffffffffffffffff1673ffffffffffffffffffffffffffffffffffffffff1681526020019081526020015f2081905550505b5f73ffffffffffffffffffffffffffffffffffffffff168273ffffffffffffffffffffffffffffffffffffffff16036112ef578060025f8282540392505081905550611339565b805f808473ffffffffffffffffffffffffffffffffffffffff1673ffffffffffffffffffffffffffffffffffffffff1681526020019081526020015f205f82825401925050819055505b8173ffffffffffffffffffffffffffffffffffffffff168373ffffffffffffffffffffffffffffffffffffffff167fddf252ad1be2c89b69c2b068fc378daa952ba7f163c4a11628f55a4df523b3ef83604051611396919061156b565b60405180910390a3505050565b5f81519050919050565b5f82825260208201905092915050565b5f5b838110156113da5780820151818401526020810190506113bf565b5f8484015250505050565b5f601f19601f8301169050919050565b5f6113ff826113a3565b61140981856113ad565b93506114198185602086016113bd565b611422816113e5565b840191505092915050565b5f6020820190508181035f83015261144581846113f5565b905092915050565b5f604051905090565b5f80fd5b5f80fd5b5f73ffffffffffffffffffffffffffffffffffffffff82169050919050565b5f6114878261145e565b9050919050565b6114978161147d565b81146114a1575f80fd5b50565b5f813590506114b28161148e565b92915050565b5f819050919050565b6114ca816114b8565b81146114d4575f80fd5b50565b5f813590506114e5816114c1565b92915050565b5f806040838503121561150157611500611456565b5b5f61150e858286016114a4565b925050602061151f858286016114d7565b9150509250929050565b5f8115159050919050565b61153d81611529565b82525050565b5f6020820190506115565f830184611534565b92915050565b611565816114b8565b82525050565b5f60208201905061157e5f83018461155c565b92915050565b5f805f6060848603121561159b5761159a611456565b5b5f6115a8868287016114a4565b93505060206115b9868287016114a4565b92505060406115ca868287016114d7565b9150509250925092565b5f60ff82169050919050565b6115e9816115d4565b82525050565b5f6020820190506116025f8301846115e0565b92915050565b5f819050919050565b61161a81611608565b82525050565b5f6020820190506116335f830184611611565b92915050565b5f6020828403121561164e5761164d611456565b5b5f61165b848285016114a4565b91505092915050565b61166d8161147d565b82525050565b5f6020820190506116865f830184611664565b92915050565b61169581611608565b811461169f575f80fd5b50565b5f813590506116b08161168c565b92915050565b5f80fd5b5f80fd5b7f4e487b71000000000000000000000000000000000000000000000000000000005f52604160045260245ffd5b6116f4826113e5565b810181811067ffffffffffffffff82111715611713576117126116be565b5b80604052505050565b5f61172561144d565b905061173182826116eb565b919050565b5f67ffffffffffffffff8211156117505761174f6116be565b5b611759826113e5565b9050602081019050919050565b828183375f83830152505050565b5f61178661178184611736565b61171c565b9050828152602081018484840111156117a2576117a16116ba565b5b6117ad848285611766565b509392505050565b5f82601f8301126117c9576117c86116b6565b5b81356117d9848260208601611774565b91505092915050565b5f805f805f805f60e0888a0312156117fd576117fc611456565b5b5f61180a8a828b016114a4565b975050602061181b8a828b016114a4565b965050604061182c8a828b016114d7565b955050606061183d8a828b016114d7565b945050608061184e8a828b016114d7565b93505060a061185f8a828b016116a2565b92505060c088013567ffffffffffffffff8111156118805761187f61145a565b5b61188c8a828b016117b5565b91505092959891949750929550565b5f80604083850312156118b1576118b0611456565b5b5f6118be858286016114a4565b92505060206118cf858286016114a4565b9150509250929050565b6118e2816115d4565b81146118ec575f80fd5b50565b5f813590506118fd816118d9565b92915050565b5f805f805f805f805f6101208a8c03121561192157611920611456565b5b5f61192e8c828d016114a4565b995050602061193f8c828d016114a4565b98505060406119508c828d016114d7565b97505060606119618c828d016114d7565b96505060806119728c828d016114d7565b95505060a06119838c828d016116a2565b94505060c06119948c828d016118ef565b93505060e06119a58c828d016116a2565b9250506101006119b78c828d016116a2565b9150509295985092959850929598565b5f80604083850312156119dd576119dc611456565b5b5f6119ea858286016114a4565b92505060206119fb858286016116a2565b9150509250929050565b7f4e487b71000000000000000000000000000000000000000000000000000000005f52602260045260245ffd5b5f6002820490506001821680611a4957607f821691505b602082108103611a5c57611a5b611a05565b5b50919050565b7f454950333030393a20696e76616c6964207369676e6174757265206c656e67745f8201527f6800000000000000000000000000000000000000000000000000000000000000602082015250565b5f611abc6021836113ad565b9150611ac782611a62565b604082019050919050565b5f6020820190508181035f830152611ae981611ab0565b9050919050565b5f61012082019050611b045f83018c611664565b611b11602083018b611664565b611b1e604083018a61155c565b611b2b606083018961155c565b611b38608083018861155c565b611b4560a0830187611611565b611b5260c08301866115e0565b611b5f60e0830185611611565b611b6d610100830184611611565b9a9950505050505050505050565b7f454950333030393a20617574686f72697a6174696f6e206e6f742079657420765f8201527f616c696400000000000000000000000000000000000000000000000000000000602082015250565b5f611bd56024836113ad565b9150611be082611b7b565b604082019050919050565b5f6020820190508181035f830152611c0281611bc9565b9050919050565b7f454950333030393a20617574686f72697a6174696f6e206578706972656400005f82015250565b5f611c3d601e836113ad565b9150611c4882611c09565b602082019050919050565b5f6020820190508181035f830152611c6a81611c31565b9050919050565b5f60e082019050611c845f83018a611611565b611c916020830189611664565b611c9e6040830188611664565b611cab606083018761155c565b611cb8608083018661155c565b611cc560a083018561155c565b611cd260c0830184611611565b98975050505050505050565b5f81905092915050565b7f19010000000000000000000000000000000000000000000000000000000000005f82015250565b5f611d1c600283611cde565b9150611d2782611ce8565b600282019050919050565b5f819050919050565b611d4c611d4782611608565b611d32565b82525050565b5f611d5c82611d10565b9150611d688285611d3b565b602082019150611d788284611d3b565b6020820191508190509392505050565b5f608082019050611d9b5f830187611611565b611da860208301866115e0565b611db56040830185611611565b611dc26060830184611611565b95945050505050565b5f606082019050611dde5f830186611664565b611deb602083018561155c565b611df8604083018461155c565b949350505050565b7f4e487b71000000000000000000000000000000000000000000000000000000005f52601160045260245ffd5b5f611e37826114b8565b9150611e42836114b8565b9250828201905080821115611e5a57611e59611e00565b5b9291505056fea26469706673582212202a0cca0dc5ca6b801b85d2c88fec47a191f76697ae1172482d25834b19e064c764736f6c63430008140033","linkReferences":{}},"methodIdentifiers":{"DOMAIN_SEPARATOR()":"3644e515","TRANSFER_WITH_AUTHORIZATION_TYPEHASH()":"a0cc6a68","allowance(address,address)":"dd62ed3e","approve(address,uint256)":"095ea7b3","authorizationState(address,bytes32)":"e94a0102","balanceOf(address)":"70a08231","decimals()":"313ce567","mint(address,uint256)":"40c10f19","name()":"06fdde03","owner()":"8da5cb5b","renounceOwnership()":"715018a6","symbol()":"95d89b41","totalSupply()":"18160ddd","transfer(address,uint256)":"a9059cbb","transferFrom(address,address,uint256)":"23b872dd","transferOwnership(address)":"f2fde38b","transferWithAuthorization(address,address,uint256,uint256,uint256,bytes32,bytes)":"cf092995","transferWithAuthorization(address,address,uint256,uint256,uint256,bytes32,uint8,bytes32,bytes32)":"e3ee160e"},"id":0}